0APRILPAY000032017080720101000000000000017600000020170807                                                                                                                                                                                                                                                                                                                                                                                                                                                                                                                                                  
1001S201506123          JUSTIN PIERRE JAMES TRUDEAU                            0010101000000000036JUSTIN PIERRE JAMES TRUDEAU             3276063006740012                                                                                                                                                                                                                                            IDR000000000000001000000                     Pembayaran gaji bulanan                 Periode Bulan Mei                                 A1000000000000000200000
1002S201501234          EDDY MUKARDANU RIMBAWAN CEMORO LAWANGI  ATOSIDJ1   05910990109572648511234EDDY MUKARDANU RIMBAWAN CEMORO LAWANGI  3276063006740004                        Jl. Diponegoro no 46                    PERUM ADIYAKSA                          Brontokusuman, Mergangsan               Kota Yogyakarta                         DI Yogyakarta                           55153   1150IDR000000000000050000000000000000000000007500Pembayaran gaji bulanan                 Periode Bulan Mei                                                        
1003S201506245          FRITS WILLIAM ALEXANDER MARCOPOLO LAMBOKATOSIDJ1       0990109572648516789FRITS WILLIAM ALEXANDER MARCOPOLO LAMBOK3276062302760009                                                                                                                                                                                                                                            IDR000000000000125000000000000000000000025000Pembayaran gaji bulanan & Bonus         Periode Bulan Mei                       R 1CRL0101                       
